{"abi":[{"type":"constructor","inputs":[],"stateMutability":"nonpayable"},{"type":"function","name":"balanceOf","inputs":[{"name":"account","type":"address","internalType":"address"},{"name":"id","type":"uint256","internalType":"uint256"}],"outputs":[{"name":"","type":"uint256","internalType":"uint256"}],"stateMutability":"view"},{"type":"function","name":"balanceOfBatch","inputs":[{"name":"accounts","type":"address[]","internalType":"address[]"},{"name":"ids","type":"uint256[]","internalType":"uint256[]"}],"outputs":[{"name":"","type":"uint256[]","internalType":"uint256[]"}],"stateMutability":"view"},{"type":"function","name":"canReport","inputs":[{"name":"conditionId","type":"bytes32","internalType":"bytes32"}],"outputs":[{"name":"","type":"bool","internalType":"bool"},{"name":"","type":"string","internalType":"string"}],"stateMutability":"view"},{"type":"function","name":"conditionInfo","inputs":[{"name":"","type":"bytes32","internalType":"bytes32"}],"outputs":[{"name":"creator","type":"address","internalType":"address"},{"name":"endTime","type":"uint256","internalType":"uint256"},{"name":"isReported","type":"bool","internalType":"bool"}],"stateMutability":"view"},{"type":"function","name":"getCollectionId","inputs":[{"name":"parentCollectionId","type":"bytes32","internalType":"bytes32"},{"name":"conditionId","type":"bytes32","internalType":"bytes32"},{"name":"indexSet","type":"uint256","internalType":"uint256"}],"outputs":[{"name":"","type":"bytes32","internalType":"bytes32"}],"stateMutability":"view"},{"type":"function","name":"getConditionId","inputs":[{"name":"oracle","type":"address","internalType":"address"},{"name":"questionId","type":"bytes32","internalType":"bytes32"},{"name":"outcomeSlotCount","type":"uint256","internalType":"uint256"}],"outputs":[{"name":"","type":"bytes32","internalType":"bytes32"}],"stateMutability":"pure"},{"type":"function","name":"getOutcomeSlotCount","inputs":[{"name":"conditionId","type":"bytes32","internalType":"bytes32"}],"outputs":[{"name":"","type":"uint256","internalType":"uint256"}],"stateMutability":"view"},{"type":"function","name":"getPositionId","inputs":[{"name":"collateralToken","type":"address","internalType":"contract IERC20"},{"name":"collectionId","type":"bytes32","internalType":"bytes32"}],"outputs":[{"name":"","type":"uint256","internalType":"uint256"}],"stateMutability":"pure"},{"type":"function","name":"isApprovedForAll","inputs":[{"name":"account","type":"address","internalType":"address"},{"name":"operator","type":"address","internalType":"address"}],"outputs":[{"name":"","type":"bool","internalType":"bool"}],"stateMutability":"view"},{"type":"function","name":"mergePositions","inputs":[{"name":"collateralToken","type":"address","internalType":"contract IERC20"},{"name":"parentCollectionId","type":"bytes32","internalType":"bytes32"},{"name":"conditionId","type":"bytes32","internalType":"bytes32"},{"name":"partition","type":"uint256[]","internalType":"uint256[]"},{"name":"amount","type":"uint256","internalType":"uint256"}],"outputs":[],"stateMutability":"nonpayable"},{"type":"function","name":"payoutDenominator","inputs":[{"name":"","type":"bytes32","internalType":"bytes32"}],"outputs":[{"name":"","type":"uint256","internalType":"uint256"}],"stateMutability":"view"},{"type":"function","name":"payoutNumerators","inputs":[{"name":"","type":"bytes32","internalType":"bytes32"},{"name":"","type":"uint256","internalType":"uint256"}],"outputs":[{"name":"","type":"uint256","internalType":"uint256"}],"stateMutability":"view"},{"type":"function","name":"prepareCondition","inputs":[{"name":"oracle","type":"address","internalType":"address"},{"name":"questionId","type":"bytes32","internalType":"bytes32"},{"name":"outcomeSlotCount","type":"uint256","internalType":"uint256"},{"name":"endTime","type":"uint256","internalType":"uint256"}],"outputs":[{"name":"","type":"bytes32","internalType":"bytes32"}],"stateMutability":"nonpayable"},{"type":"function","name":"redeemPositions","inputs":[{"name":"collateralToken","type":"address","internalType":"contract IERC20"},{"name":"parentCollectionId","type":"bytes32","internalType":"bytes32"},{"name":"conditionId","type":"bytes32","internalType":"bytes32"},{"name":"indexSets","type":"uint256[]","internalType":"uint256[]"}],"outputs":[],"stateMutability":"nonpayable"},{"type":"function","name":"reportPayouts","inputs":[{"name":"questionId","type":"bytes32","internalType":"bytes32"},{"name":"payouts","type":"uint256[]","internalType":"uint256[]"}],"outputs":[],"stateMutability":"nonpayable"},{"type":"function","name":"safeBatchTransferFrom","inputs":[{"name":"from","type":"address","internalType":"address"},{"name":"to","type":"address","internalType":"address"},{"name":"ids","type":"uint256[]","internalType":"uint256[]"},{"name":"values","type":"uint256[]","internalType":"uint256[]"},{"name":"data","type":"bytes","internalType":"bytes"}],"outputs":[],"stateMutability":"nonpayable"},{"type":"function","name":"safeTransferFrom","inputs":[{"name":"from","type":"address","internalType":"address"},{"name":"to","type":"address","internalType":"address"},{"name":"id","type":"uint256","internalType":"uint256"},{"name":"value","type":"uint256","internalType":"uint256"},{"name":"data","type":"bytes","internalType":"bytes"}],"outputs":[],"stateMutability":"nonpayable"},{"type":"function","name":"setApprovalForAll","inputs":[{"name":"operator","type":"address","internalType":"address"},{"name":"approved","type":"bool","internalType":"bool"}],"outputs":[],"stateMutability":"nonpayable"},{"type":"function","name":"splitPosition","inputs":[{"name":"collateralToken","type":"address","internalType":"contract IERC20"},{"name":"parentCollectionId","type":"bytes32","internalType":"bytes32"},{"name":"conditionId","type":"bytes32","internalType":"bytes32"},{"name":"partition","type":"uint256[]","internalType":"uint256[]"},{"name":"amount","type":"uint256","internalType":"uint256"}],"outputs":[],"stateMutability":"nonpayable"},{"type":"function","name":"supportsInterface","inputs":[{"name":"interfaceId","type":"bytes4","internalType":"bytes4"}],"outputs":[{"name":"","type":"bool","internalType":"bool"}],"stateMutability":"view"},{"type":"function","name":"uri","inputs":[{"name":"","type":"uint256","internalType":"uint256"}],"outputs":[{"name":"","type":"string","internalType":"string"}],"stateMutability":"view"},{"type":"event","name":"ApprovalForAll","inputs":[{"name":"account","type":"address","indexed":true,"internalType":"address"},{"name":"operator","type":"address","indexed":true,"internalType":"address"},{"name":"approved","type":"bool","indexed":false,"internalType":"bool"}],"anonymous":false},{"type":"event","name":"ConditionPreparation","inputs":[{"name":"conditionId","type":"bytes32","indexed":true,"internalType":"bytes32"},{"name":"oracle","type":"address","indexed":true,"internalType":"address"},{"name":"questionId","type":"bytes32","indexed":true,"internalType":"bytes32"},{"name":"outcomeSlotCount","type":"uint256","indexed":false,"internalType":"uint256"}],"anonymous":false},{"type":"event","name":"ConditionResolution","inputs":[{"name":"conditionId","type":"bytes32","indexed":true,"internalType":"bytes32"},{"name":"oracle","type":"address","indexed":true,"internalType":"address"},{"name":"questionId","type":"bytes32","indexed":true,"internalType":"bytes32"},{"name":"outcomeSlotCount","type":"uint256","indexed":false,"internalType":"uint256"},{"name":"payoutNumerators","type":"uint256[]","indexed":false,"internalType":"uint256[]"}],"anonymous":false},{"type":"event","name":"PayoutRedemption","inputs":[{"name":"redeemer","type":"address","indexed":true,"internalType":"address"},{"name":"collateralToken","type":"address","indexed":true,"internalType":"contract IERC20"},{"name":"parentCollectionId","type":"bytes32","indexed":true,"internalType":"bytes32"},{"name":"conditionId","type":"bytes32","indexed":false,"internalType":"bytes32"},{"name":"indexSets","type":"uint256[]","indexed":false,"internalType":"uint256[]"},{"name":"payout","type":"uint256","indexed":false,"internalType":"uint256"}],"anonymous":false},{"type":"event","name":"PositionSplit","inputs":[{"name":"stakeholder","type":"address","indexed":true,"internalType":"address"},{"name":"collateralToken","type":"address","indexed":false,"internalType":"contract IERC20"},{"name":"parentCollectionId","type":"bytes32","indexed":true,"internalType":"bytes32"},{"name":"conditionId","type":"bytes32","indexed":true,"internalType":"bytes32"},{"name":"partition","type":"uint256[]","indexed":false,"internalType":"uint256[]"},{"name":"amount","type":"uint256","indexed":false,"internalType":"uint256"}],"anonymous":false},{"type":"event","name":"PositionsMerge","inputs":[{"name":"stakeholder","type":"address","indexed":true,"internalType":"address"},{"name":"collateralToken","type":"address","indexed":false,"internalType":"contract IERC20"},{"name":"parentCollectionId","type":"bytes32","indexed":true,"internalType":"bytes32"},{"name":"conditionId","type":"bytes32","indexed":true,"internalType":"bytes32"},{"name":"partition","type":"uint256[]","indexed":false,"internalType":"uint256[]"},{"name":"amount","type":"uint256","indexed":false,"internalType":"uint256"}],"anonymous":false},{"type":"event","name":"TransferBatch","inputs":[{"name":"operator","type":"address","indexed":true,"internalType":"address"},{"name":"from","type":"address","indexed":true,"internalType":"address"},{"name":"to","type":"address","indexed":true,"internalType":"address"},{"name":"ids","type":"uint256[]","indexed":false,"internalType":"uint256[]"},{"name":"values","type":"uint256[]","indexed":false,"internalType":"uint256[]"}],"anonymous":false},{"type":"event","name":"TransferSingle","inputs":[{"name":"operator","type":"address","indexed":true,"internalType":"address"},{"name":"from","type":"address","indexed":true,"internalType":"address"},{"name":"to","type":"address","indexed":true,"internalType":"address"},{"name":"id","type":"uint256","indexed":false,"internalType":"uint256"},{"name":"value","type":"uint256","indexed":false,"internalType":"uint256"}],"anonymous":false},{"type":"event","name":"URI","inputs":[{"name":"value","type":"string","indexed":false,"internalType":"string"},{"name":"id","type":"uint256","indexed":true,"internalType":"uint256"}],"anonymous":false},{"type":"error","name":"ERC1155InsufficientBalance","inputs":[{"name":"sender","type":"address","internalType":"address"},{"name":"balance","type":"uint256","internalType":"uint256"},{"name":"needed","type":"uint256","internalType":"uint256"},{"name":"tokenId","type":"uint256","internalType":"uint256"}]},{"type":"error","name":"ERC1155InvalidApprover","inputs":[{"name":"approver","type":"address","internalType":"address"}]},{"type":"error","name":"ERC1155InvalidArrayLength","inputs":[{"name":"idsLength","type":"uint256","internalType":"uint256"},{"name":"valuesLength","type":"uint256","internalType":"uint256"}]},{"type":"error","name":"ERC1155InvalidOperator","inputs":[{"name":"operator","type":"address","internalType":"address"}]},{"type":"error","name":"ERC1155InvalidReceiver","inputs":[{"name":"receiver","type":"address","internalType":"address"}]},{"type":"error","name":"ERC1155InvalidSender","inputs":[{"name":"sender","type":"address","internalType":"address"}]},{"type":"error","name":"ERC1155MissingApprovalForAll","inputs":[{"name":"operator","type":"address","internalType":"address"},{"name":"owner","type":"address","internalType":"address"}]}],"bytecode":{"object":"0x608060405234801561001057600080fd5b506040805160208101909152600081526100298161002f565b5061019f565b600261003b82826100e0565b5050565b634e487b7160e01b600052604160045260246000fd5b600181811c9082168061006957607f821691505b60208210810361008957634e487b7160e01b600052602260045260246000fd5b50919050565b601f8211156100db576000816000526020600020601f850160051c810160208610156100b85750805b601f850160051c820191505b818110156100d7578281556001016100c4565b5050505b505050565b81516001600160401b038111156100f9576100f961003f565b61010d816101078454610055565b8461008f565b602080601f831160018114610142576000841561012a5750858301515b600019600386901b1c1916600185901b1785556100d7565b600085815260208120601f198616915b8281101561017157888601518255948401946001909101908401610152565b508582101561018f5787850151600019600388901b60f8161c191681555b5050505050600190811b01905550565b61377a806101ae6000396000f3fe608060405234801561001057600080fd5b50600436106101365760003560e01c806372ce4275116100b8578063c49298ac1161007c578063c49298ac146102e7578063d42dc0c2146102fa578063d5f6479f1461031a578063dd34de671461033b578063e985e9c51461035b578063f242432a1461036e57600080fd5b806372ce427514610288578063852c6ae21461029b578063856296f7146102ae5780639e7212ad146102c1578063a22cb465146102d457600080fd5b80630e89341c116100ff5780630e89341c146101bf5780632eb2c2d6146101df57806339dd7530146101f25780634e1273f4146102055780635710cb291461022557600080fd5b8062fdd58e1461013b57806301b7037c1461016157806301ffc9a7146101765780630504c814146101995780630ca528d4146101ac575b600080fd5b61014e610149366004612c2b565b610381565b6040519081526020015b60405180910390f35b61017461016f366004612ca2565b6103a9565b005b610189610184366004612d21565b6106d5565b6040519015158152602001610158565b61014e6101a7366004612d3e565b610725565b61014e6101ba366004612d60565b610756565b6101d26101cd366004612d9b565b610998565b6040516101589190612e04565b6101746101ed366004612f5e565b610a2c565b61014e610200366004612c2b565b610a93565b61021861021336600461300b565b610aa6565b6040516101589190613108565b610261610233366004612d9b565b6005602052600090815260409020805460018201546002909201546001600160a01b03909116919060ff1683565b604080516001600160a01b0390941684526020840192909252151590820152606001610158565b61017461029636600461311b565b610b72565b61014e6102a936600461318c565b610efd565b61014e6102bc3660046131c1565b610f12565b6101746102cf36600461311b565b610f1f565b6101746102e23660046131fb565b611283565b6101746102f5366004613234565b611292565b61014e610308366004612d9b565b60009081526003602052604090205490565b61032d610328366004612d9b565b611665565b60405161015892919061327f565b61014e610349366004612d9b565b60046020526000908152604090205481565b61018961036936600461329a565b611781565b61017461037c3660046132c8565b6117af565b6000818152602081815260408083206001600160a01b03861684529091529020545b92915050565b600083815260046020526040902054806104185760405162461bcd60e51b815260206004820152602560248201527f726573756c7420666f7220636f6e646974696f6e206e6f74207265636569766560448201526419081e595d60da1b60648201526084015b60405180910390fd5b600084815260036020526040902054806104445760405162461bcd60e51b815260040161040f90613330565b600080610454600180851b61337d565b905060005b8581101561057257600087878381811061047557610475613390565b90506020020135905060008111801561048d57508281105b6104a95760405162461bcd60e51b815260040161040f906133a6565b60006104bf8c6104ba8d8d8661180e565b611b13565b90506000805b87811015610522576001811b84161561051a5760008c815260036020526040902080546105179190839081106104fd576104fd613390565b906000526020600020015483611b5b90919063ffffffff16565b91505b6001016104c5565b50600061052f3384610381565b905080156105625761055561054e8a6105488486611b79565b90611baf565b8890611b5b565b9650610562338483611bbb565b5050600190920191506104599050565b50811561067857876106545760405163a9059cbb60e01b8152336004820152602481018390526001600160a01b038a169063a9059cbb906044016020604051808303816000875af11580156105cb573d6000803e3d6000fd5b505050506040513d601f19601f820116820180604052508101906105ef91906133d5565b61064f5760405162461bcd60e51b815260206004820152602b60248201527f636f756c64206e6f74207472616e73666572207061796f757420746f206d657360448201526a39b0b3b29039b2b73232b960a91b606482015260840161040f565b610678565b610678336106628b8b611b13565b8460405180602001604052806000815250611c2a565b87896001600160a01b0316336001600160a01b03167f2682012a4a4f1973119f1c9b90745d1bd91fa2bab387344f044cb3586864d18d8a8a8a886040516106c29493929190613424565b60405180910390a4505050505050505050565b60006001600160e01b03198216636cdb3d1360e11b148061070657506001600160e01b031982166303a24d0760e21b145b806103a357506301ffc9a760e01b6001600160e01b03198316146103a3565b6003602052816000526040600020818154811061074157600080fd5b90600052602060002001600091509150505481565b60004282116107a75760405162461bcd60e51b815260206004820152601a60248201527f656e642074696d65206d75737420626520696e20667574757265000000000000604482015260640161040f565b6101008311156107f25760405162461bcd60e51b8152602060048201526016602482015275746f6f206d616e79206f7574636f6d6520736c6f747360501b604482015260640161040f565b600183116108125760405162461bcd60e51b815260040161040f9061344f565b600061081f868686611c87565b6000818152600360205260409020549091501561087e5760405162461bcd60e51b815260206004820152601a60248201527f636f6e646974696f6e20616c7265616479207072657061726564000000000000604482015260640161040f565b604080516060810182526001600160a01b03888116825260208083018781526000848601818152878252600590935294909420925183546001600160a01b03191692169190911782559151600182015590516002909101805460ff1916911515919091179055836001600160401b038111156108fc576108fc612e17565b604051908082528060200260200182016040528015610925578160200160208202803683370190505b50600082815260036020908152604090912082516109499391929190910190612bb6565b5084866001600160a01b0316827fab3760c3bd2bb38b5bcf54dc79802ed67338b4cf29f3054ded67ed24661e41778760405161098791815260200190565b60405180910390a495945050505050565b6060600280546109a790613499565b80601f01602080910402602001604051908101604052809291908181526020018280546109d390613499565b8015610a205780601f106109f557610100808354040283529160200191610a20565b820191906000526020600020905b815481529060010190602001808311610a0357829003601f168201915b50505050509050919050565b336001600160a01b0386168114801590610a4d5750610a4b8682611781565b155b15610a7e5760405163711bec9160e11b81526001600160a01b0380831660048301528716602482015260440161040f565b610a8b8686868686611cd6565b505050505050565b6000610a9f8383611b13565b9392505050565b60608151835114610ad75781518351604051635b05999160e01b81526004810192909252602482015260440161040f565b600083516001600160401b03811115610af257610af2612e17565b604051908082528060200260200182016040528015610b1b578160200160208202803683370190505b50905060005b8451811015610b6a57602080820286010151610b4590602080840287010151610381565b828281518110610b5757610b57613390565b6020908102919091010152600101610b21565b509392505050565b60018211610bc25760405162461bcd60e51b815260206004820181905260248201527f676f7420656d707479206f722073696e676c65746f6e20706172746974696f6e604482015260640161040f565b60008481526003602052604090205480610bee5760405162461bcd60e51b815260040161040f90613330565b6000610bfd600180841b61337d565b9050806000856001600160401b03811115610c1a57610c1a612e17565b604051908082528060200260200182016040528015610c43578160200160208202803683370190505b5090506000866001600160401b03811115610c6057610c60612e17565b604051908082528060200260200182016040528015610c89578160200160208202803683370190505b50905060005b87811015610d81576000898983818110610cab57610cab613390565b905060200201359050600081118015610cc357508581105b610cdf5760405162461bcd60e51b815260040161040f906133a6565b8085821614610d295760405162461bcd60e51b81526020600482015260166024820152751c185c9d1a5d1a5bdb881b9bdd08191a5cda9bda5b9d60521b604482015260640161040f565b93841893610d3c8d6104ba8e8e8561180e565b848381518110610d4e57610d4e613390565b60200260200101818152505087838381518110610d6d57610d6d613390565b602090810291909101015250600101610c8f565b5082600003610e775789610e63576040516323b872dd60e01b8152336004820152306024820152604481018790526001600160a01b038c16906323b872dd906064016020604051808303816000875af1158015610de2573d6000803e3d6000fd5b505050506040513d601f19601f82011682018060405250810190610e0691906133d5565b610e5e5760405162461bcd60e51b815260206004820152602360248201527f636f756c64206e6f74207265636569766520636f6c6c61746572616c20746f6b604482015262656e7360e81b606482015260840161040f565b610e8c565b610e5e33610e718d8d611b13565b88611bbb565b610e8c33610e718d6104ba8e8e898b1861180e565b610ea733838360405180602001604052806000815250611d36565b888a336001600160a01b03167f2e6bb91f8cbcda0c93623c54d0403a43514fabc40084ec96b6d5379a747862988e8c8c8c604051610ee894939291906134d3565b60405180910390a45050505050505050505050565b6000610f0a848484611c87565b949350505050565b6000610f0a84848461180e565b60018211610f6f5760405162461bcd60e51b815260206004820181905260248201527f676f7420656d707479206f722073696e676c65746f6e20706172746974696f6e604482015260640161040f565b60008481526003602052604090205480610f9b5760405162461bcd60e51b815260040161040f90613330565b6000610faa600180841b61337d565b9050806000856001600160401b03811115610fc757610fc7612e17565b604051908082528060200260200182016040528015610ff0578160200160208202803683370190505b5090506000866001600160401b0381111561100d5761100d612e17565b604051908082528060200260200182016040528015611036578160200160208202803683370190505b50905060005b8781101561112e57600089898381811061105857611058613390565b90506020020135905060008111801561107057508581105b61108c5760405162461bcd60e51b815260040161040f906133a6565b80858216146110d65760405162461bcd60e51b81526020600482015260166024820152751c185c9d1a5d1a5bdb881b9bdd08191a5cda9bda5b9d60521b604482015260640161040f565b938418936110e98d6104ba8e8e8561180e565b8483815181106110fb576110fb613390565b6020026020010181815250508783838151811061111a5761111a613390565b60209081029190910101525060010161103c565b5061113a338383611d74565b8260000361122d57896112095760405163a9059cbb60e01b8152336004820152602481018790526001600160a01b038c169063a9059cbb906044016020604051808303816000875af1158015611194573d6000803e3d6000fd5b505050506040513d601f19601f820116820180604052508101906111b891906133d5565b6112045760405162461bcd60e51b815260206004820181905260248201527f636f756c64206e6f742073656e6420636f6c6c61746572616c20746f6b656e73604482015260640161040f565b611242565b611204336112178d8d611b13565b8860405180602001604052806000815250611c2a565b611242336112178d6104ba8e8e898b1861180e565b888a336001600160a01b03167f6f13ca62553fcc2bcd2372180a43949c1e4cebba603901ede2f4e14f36b282ca8e8c8c8c604051610ee894939291906134d3565b61128e338383611dbf565b5050565b80600181116112b35760405162461bcd60e51b815260040161040f9061344f565b6112bc84611e55565b6112c533611e9d565b60006112d2338684611c87565b600081815260056020526040902060018101549192509042101561132f5760405162461bcd60e51b81526020600482015260146024820152731b585c9ad95d081b9bdd08195b991959081e595d60621b604482015260640161040f565b600281015460ff16156113775760405162461bcd60e51b815260206004820152601060248201526f185b1c9958591e481c995c1bdc9d195960821b604482015260640161040f565b80546001600160a01b03163314806113a05750600181015461139c90620151806134f8565b4210155b6114005760405162461bcd60e51b815260206004820152602b60248201527f6f6e6c792063726561746f722063616e207265706f7274206265666f7265206760448201526a1c9858d9481c195c9a5bd960aa1b606482015260840161040f565b600082815260036020526040902054831461145d5760405162461bcd60e51b815260206004820152601f60248201527f636f6e646974696f6e206e6f74207072657061726564206f7220666f756e6400604482015260640161040f565b600082815260046020526040902054156114b95760405162461bcd60e51b815260206004820152601e60248201527f7061796f75742064656e6f6d696e61746f7220616c7265616479207365740000604482015260640161040f565b6000805b848110156115ab5760008787838181106114d9576114d9613390565b9050602002013590506114f58184611b5b90919063ffffffff16565b60008681526003602052604090208054919450908390811061151957611519613390565b90600052602060002001546000146115735760405162461bcd60e51b815260206004820152601c60248201527f7061796f7574206e756d657261746f7220616c72656164792073657400000000604482015260640161040f565b600085815260036020526040902080548291908490811061159657611596613390565b600091825260209091200155506001016114bd565b50600081116115f35760405162461bcd60e51b81526020600482015260146024820152737061796f757420697320616c6c207a65726f657360601b604482015260640161040f565b600083815260046020908152604080832084905560028501805460ff1916600117905560039091529081902090518891339186917fb44d84d3289691f71497564b85d4233648d9dbae8cbdbb4329f301c3a018589491611654918a9161350b565b60405180910390a450505050505050565b600081815260056020526040812060028101546060919060ff16156116b95760006040518060400160405280601081526020016f185b1c9958591e481c995c1bdc9d195960821b8152509250925050915091565b80600101544210156116fe576000604051806040016040528060148152602001731b585c9ad95d081b9bdd08195b991959081e595d60621b8152509250925050915091565b80546001600160a01b031633148015906117285750600181015461172590620151806134f8565b42105b156117525760006040518060600160405280602b815260200161371a602b91399250925050915091565b60016040518060400160405280600a81526020016918d85b881c995c1bdc9d60b21b8152509250925050915091565b6001600160a01b03918216600090815260016020908152604080832093909416825291909152205460ff1690565b336001600160a01b03861681148015906117d057506117ce8682611781565b155b156118015760405163711bec9160e11b81526001600160a01b0380831660048301528716602482015260440161040f565b610a8b8686868686611ee5565b600080838360405160200161182d929190918252602082015260400190565b60408051601f198184030181529190528051602090910120905060ff81901c15156000805b6000805160206136fa8339815191526001850893506000805160206136fa83398151915260036000805160206136fa83398151915280878809870908905061189981611f73565b9150806000805160206136fa83398151915283840903611852578280156118c857506118c6600283613576565b155b806118e65750821580156118e657506118e2600283613576565b6001145b1561190657611903826000805160206136fa83398151915261337d565b91505b878015611aea5760fe81901c151593506001600160fe1b03166000805160206136fa83398151915260036000805160206136fa833981519152808485098409089150600061195383611f73565b905084801561196a5750611968600282613576565b155b806119885750841580156119885750611984600282613576565b6001145b156119a8576119a5816000805160206136fa83398151915261337d565b90505b826000805160206136fa83398151915282830914611a085760405162461bcd60e51b815260206004820152601c60248201527f696e76616c696420706172656e7420636f6c6c656374696f6e20494400000000604482015260640161040f565b60408051602081018890529081018590526060810183905260808101829052600090819060069060a00160408051601f1981840301815290829052611a4c9161358a565b600060405180830381855afa9150503d8060008114611a87576040519150601f19603f3d011682016040523d82523d6000602084013e611a8c565b606091505b509150915081611acd5760405162461bcd60e51b815260206004820152600c60248201526b1958d859190819985a5b195960a21b604482015260640161040f565b80806020019051810190611ae191906135a6565b90985095505050505b611af5600284613576565b600103611b0657600160fe1b851894505b5092979650505050505050565b6040516bffffffffffffffffffffffff19606084901b1660208201526034810182905260009060540160408051601f1981840301815291905280516020909101209392505050565b6000611b6782846134f8565b9050828110156103a3576103a36135ca565b600082600003611b8b575060006103a3565b611b9582846135e0565b905081611ba284836135f7565b146103a3576103a36135ca565b6000610a9f82846135f7565b6001600160a01b038316611be457604051626a0d4560e21b81526000600482015260240161040f565b604080516001808252602082018590528183019081526060820184905260a08201909252600060808201818152919291611c2391879185908590612718565b5050505050565b6001600160a01b038416611c5457604051632bfa23e760e11b81526000600482015260240161040f565b60408051600180825260208201869052818301908152606082018590526080820190925290610a8b600087848487612718565b6040516bffffffffffffffffffffffff19606085901b16602082015260348101839052605481018290526000906074016040516020818303038152906040528051906020012090509392505050565b6001600160a01b038416611d0057604051632bfa23e760e11b81526000600482015260240161040f565b6001600160a01b038516611d2957604051626a0d4560e21b81526000600482015260240161040f565b611c238585858585612718565b6001600160a01b038416611d6057604051632bfa23e760e11b81526000600482015260240161040f565b611d6e600085858585612718565b50505050565b6001600160a01b038316611d9d57604051626a0d4560e21b81526000600482015260240161040f565b611dba836000848460405180602001604052806000815250612718565b505050565b6001600160a01b038216611de85760405162ced3e160e81b81526000600482015260240161040f565b6001600160a01b03838116600081815260016020908152604080832094871680845294825291829020805460ff191686151590811790915591519182527f17307eab39ab6107e8899845ad3d59bd9653f200f220920489ca2b5937696c31910160405180910390a3505050565b611e9a81604051602401611e6b91815260200190565b60408051601f198184030181529190526020810180516001600160e01b03166327b7cf8560e01b17905261276b565b50565b6040516001600160a01b0382166024820152611e9a9060440160408051601f198184030181529190526020810180516001600160e01b031663161765e160e11b17905261276b565b6001600160a01b038416611f0f57604051632bfa23e760e11b81526000600482015260240161040f565b6001600160a01b038516611f3857604051626a0d4560e21b81526000600482015260240161040f565b60408051600180825260208201869052818301908152606082018590526080820190925290611f6a8787848487612718565b50505050505050565b60006000805160206136fa833981519152808380099150808283098181820990508181840992508183850993508184840992508183840990508181820982818309905082818209905082818209905082818309915082828609945082858609915082828309915082828509935082848509915082828309915082828309915082828509915082828609945082858609915082828309915082828309915082828609915082828509935082848609945082858609915082828309915082828509935082848509915082828309905082818209905082818209905082818309915082828609945082858509935082848509915082828309915082828309915082828609945082858609915082828309915082828609915082828309915082828309915082828609915082828509935082848509915082828309905082818209905082818309905082818509905082818209905082818209905082818209905082818209905082818309915082828609945082858609915082828609915082828509935082848509915082828509915082828309915082828309905082818309905082818209838182099050838182099050838182099050838182099050838183099150508281830991508282860994508285850993508284850991508282860994508285850993508284860994508285850993508284860994508285860991508282860991508282830991508282850993508284850991508282830991508282860994508285850993508284850991508282850991508282860994508285850993508284860994508285850993508284850991508282830991508282850991508282860994508285860991508282860991508282850993508284860994508285850993508284860994508285850993508284850991508282850991508282830991508282860994508285850993508284850991508282850991508282830991508282860994508285860991508282830990508281820990508281830990508281860990508281820990508281820990508281820990508281820990508281830991508282850993508284860994508285850993508284860994508285860991508282860991508282830991508282830991508282830991508282860991508282850993508284850991508282850991508282830991508282860994508285860991508282860991508282850993508284860994508285860991508282830991508282850993508284860994508285860991508282850993508284860994508285850993508284850991508282850991508282860994508285850993508284850991508282850991508282830991508282830991508282860994508285860991508282830991508282830991508282860991508282850993508284860994508285860991508282860990508281820990508281820990508281830991508282850993508284850991508282860994508285850993508284860994508285850993508284860994508285850993508284850991508282850990508281850991508282830991508282830991508282820991505081818509935081848409925081838509935081848409925081838509935081848509905081818509905081818409925050808284099250808384099250808384099250808384099250808384099250808384099250808384099250808384099250808384099250808384099250808384099250808384099250808384099250808384099250808384099250808384099250808384099250808384099250808384099250808384099250808384099250808384099250808384099250808384099250808384099250808384099250808384099250808384099250808384099250808384099250808384099250808384099250808384099250808384099250808384099250808384099250808384099250808384099250808384099250808384099250808384099250808384099250808384099250808384099250808384099250808384099250808384099250808384099250808384099250808384099250808384099250808384099250808384099250808384099250808384099250808384099250808384099250808384099250808384099250808384099250808384099250808384099250808384099250808384099250808384099250808384099250808384099250808384099250808384099250808384099250808384099250808384099250808384099250808384099250808384099250808384099250808384099250808384099250808384099250808384099250808384099250808384099250808384099250808384099250808384099250808384099250808384099250808384099250808384099250808384099250808384099250808384099250808384099250808384099250808384099250808384099250808384099250808384099250808384099250808384099250808384099250808384099250808384099250808384099250808384099250808384099250808384099250808384099250808384099250808384099250808384099250808384099250808384099250808384099250808384099250808384099250808384099250808384099250808384099250808384099250808384099250808384099250808384099250808384099250808384099250808384099250808384099250808383099392505050565b61272485858585612774565b6001600160a01b03841615611c23578251339060010361275d5760208481015190840151612756838989858589612988565b5050610a8b565b610a8b818787878787612aac565b611e9a81612b95565b80518251146127a35781518151604051635b05999160e01b81526004810192909252602482015260440161040f565b3360005b83518110156128a9576020818102858101820151908501909101516001600160a01b0388161561285a576000828152602081815260408083206001600160a01b038c16845290915290205481811015612833576040516303dee4c560e01b81526001600160a01b038a16600482015260248101829052604481018390526064810184905260840161040f565b6000838152602081815260408083206001600160a01b038d16845290915290209082900390555b6001600160a01b0387161561289f576000828152602081815260408083206001600160a01b038b168452909152812080548392906128999084906134f8565b90915550505b50506001016127a7565b50825160010361292a5760208301516000906020840151909150856001600160a01b0316876001600160a01b0316846001600160a01b03167fc3d58168c5ae7397731d063d5bbf3d657854427343f4c083240f7aacaa2d0f62858560405161291b929190918252602082015260400190565b60405180910390a45050611c23565b836001600160a01b0316856001600160a01b0316826001600160a01b03167f4a39dc06d4c0dbc64b70af90fd698a233a518aa5d07e595d983b8c0526c8f7fb868660405161297992919061360b565b60405180910390a45050505050565b6001600160a01b0384163b15610a8b5760405163f23a6e6160e01b81526001600160a01b0385169063f23a6e61906129cc9089908990889088908890600401613639565b6020604051808303816000875af1925050508015612a07575060408051601f3d908101601f19168201909252612a049181019061367e565b60015b612a70573d808015612a35576040519150601f19603f3d011682016040523d82523d6000602084013e612a3a565b606091505b508051600003612a6857604051632bfa23e760e11b81526001600160a01b038616600482015260240161040f565b805181602001fd5b6001600160e01b0319811663f23a6e6160e01b14611f6a57604051632bfa23e760e11b81526001600160a01b038616600482015260240161040f565b6001600160a01b0384163b15610a8b5760405163bc197c8160e01b81526001600160a01b0385169063bc197c8190612af0908990899088908890889060040161369b565b6020604051808303816000875af1925050508015612b2b575060408051601f3d908101601f19168201909252612b289181019061367e565b60015b612b59573d808015612a35576040519150601f19603f3d011682016040523d82523d6000602084013e612a3a565b6001600160e01b0319811663bc197c8160e01b14611f6a57604051632bfa23e760e11b81526001600160a01b038616600482015260240161040f565b60006a636f6e736f6c652e6c6f679050600080835160208501845afa505050565b828054828255906000526020600020908101928215612bf1579160200282015b82811115612bf1578251825591602001919060010190612bd6565b50612bfd929150612c01565b5090565b5b80821115612bfd5760008155600101612c02565b6001600160a01b0381168114611e9a57600080fd5b60008060408385031215612c3e57600080fd5b8235612c4981612c16565b946020939093013593505050565b60008083601f840112612c6957600080fd5b5081356001600160401b03811115612c8057600080fd5b6020830191508360208260051b8501011115612c9b57600080fd5b9250929050565b600080600080600060808688031215612cba57600080fd5b8535612cc581612c16565b9450602086013593506040860135925060608601356001600160401b03811115612cee57600080fd5b612cfa88828901612c57565b969995985093965092949392505050565b6001600160e01b031981168114611e9a57600080fd5b600060208284031215612d3357600080fd5b8135610a9f81612d0b565b60008060408385031215612d5157600080fd5b50508035926020909101359150565b60008060008060808587031215612d7657600080fd5b8435612d8181612c16565b966020860135965060408601359560600135945092505050565b600060208284031215612dad57600080fd5b5035919050565b60005b83811015612dcf578181015183820152602001612db7565b50506000910152565b60008151808452612df0816020860160208601612db4565b601f01601f19169290920160200192915050565b602081526000610a9f6020830184612dd8565b634e487b7160e01b600052604160045260246000fd5b604051601f8201601f191681016001600160401b0381118282101715612e5557612e55612e17565b604052919050565b60006001600160401b03821115612e7657612e76612e17565b5060051b60200190565b600082601f830112612e9157600080fd5b81356020612ea6612ea183612e5d565b612e2d565b8083825260208201915060208460051b870101935086841115612ec857600080fd5b602086015b84811015612ee45780358352918301918301612ecd565b509695505050505050565b600082601f830112612f0057600080fd5b81356001600160401b03811115612f1957612f19612e17565b612f2c601f8201601f1916602001612e2d565b818152846020838601011115612f4157600080fd5b816020850160208301376000918101602001919091529392505050565b600080600080600060a08688031215612f7657600080fd5b8535612f8181612c16565b94506020860135612f9181612c16565b935060408601356001600160401b0380821115612fad57600080fd5b612fb989838a01612e80565b94506060880135915080821115612fcf57600080fd5b612fdb89838a01612e80565b93506080880135915080821115612ff157600080fd5b50612ffe88828901612eef565b9150509295509295909350565b6000806040838503121561301e57600080fd5b82356001600160401b038082111561303557600080fd5b818501915085601f83011261304957600080fd5b81356020613059612ea183612e5d565b82815260059290921b8401810191818101908984111561307857600080fd5b948201945b8386101561309f57853561309081612c16565b8252948201949082019061307d565b965050860135925050808211156130b557600080fd5b506130c285828601612e80565b9150509250929050565b60008151808452602080850194506020840160005b838110156130fd578151875295820195908201906001016130e1565b509495945050505050565b602081526000610a9f60208301846130cc565b60008060008060008060a0878903121561313457600080fd5b863561313f81612c16565b9550602087013594506040870135935060608701356001600160401b0381111561316857600080fd5b61317489828a01612c57565b979a9699509497949695608090950135949350505050565b6000806000606084860312156131a157600080fd5b83356131ac81612c16565b95602085013595506040909401359392505050565b6000806000606084860312156131d657600080fd5b505081359360208301359350604090920135919050565b8015158114611e9a57600080fd5b6000806040838503121561320e57600080fd5b823561321981612c16565b91506020830135613229816131ed565b809150509250929050565b60008060006040848603121561324957600080fd5b8335925060208401356001600160401b0381111561326657600080fd5b61327286828701612c57565b9497909650939450505050565b8215158152604060208201526000610f0a6040830184612dd8565b600080604083850312156132ad57600080fd5b82356132b881612c16565b9150602083013561322981612c16565b600080600080600060a086880312156132e057600080fd5b85356132eb81612c16565b945060208601356132fb81612c16565b9350604086013592506060860135915060808601356001600160401b0381111561332457600080fd5b612ffe88828901612eef565b6020808252601a908201527f636f6e646974696f6e206e6f7420707265706172656420796574000000000000604082015260600190565b634e487b7160e01b600052601160045260246000fd5b818103818111156103a3576103a3613367565b634e487b7160e01b600052603260045260246000fd5b60208082526015908201527419dbdd081a5b9d985b1a59081a5b99195e081cd95d605a1b604082015260600190565b6000602082840312156133e757600080fd5b8151610a9f816131ed565b81835260006001600160fb1b0383111561340b57600080fd5b8260051b80836020870137939093016020019392505050565b84815260606020820152600061343e6060830185876133f2565b905082604083015295945050505050565b6020808252602a908201527f74686572652073686f756c64206265206d6f7265207468616e206f6e65206f756040820152691d18dbdb59481cdb1bdd60b21b606082015260800190565b600181811c908216806134ad57607f821691505b6020821081036134cd57634e487b7160e01b600052602260045260246000fd5b50919050565b6001600160a01b038516815260606020820181905260009061343e90830185876133f2565b808201808211156103a3576103a3613367565b600060408201848352602060406020850152818554808452606086019150866000526020600020935060005b8181101561355357845483526001948501949284019201613537565b5090979650505050505050565b634e487b7160e01b600052601260045260246000fd5b60008261358557613585613560565b500690565b6000825161359c818460208701612db4565b9190910192915050565b600080604083850312156135b957600080fd5b505080516020909101519092909150565b634e487b7160e01b600052600160045260246000fd5b80820281158282048414176103a3576103a3613367565b60008261360657613606613560565b500490565b60408152600061361e60408301856130cc565b828103602084015261363081856130cc565b95945050505050565b6001600160a01b03868116825285166020820152604081018490526060810183905260a06080820181905260009061367390830184612dd8565b979650505050505050565b60006020828403121561369057600080fd5b8151610a9f81612d0b565b6001600160a01b0386811682528516602082015260a0604082018190526000906136c7908301866130cc565b82810360608401526136d981866130cc565b905082810360808401526136ed8185612dd8565b9897505050505050505056fe30644e72e131a029b85045b68181585d97816a916871ca8d3c208c16d87cfd476f6e6c792063726561746f722063616e207265706f7274206265666f726520677261636520706572696f64a264697066735822122078f37c4d4fc2270899c7efd8c75a5dea4f4a220efc056bf1f6de6d69f9f257d664736f6c63430008190033","linkReferences":{}},"methodIdentifiers":{"balanceOf(address,uint256)":"00fdd58e","balanceOfBatch(address[],uint256[])":"4e1273f4","canReport(bytes32)":"d5f6479f","conditionInfo(bytes32)":"5710cb29","getCollectionId(bytes32,bytes32,uint256)":"856296f7","getConditionId(address,bytes32,uint256)":"852c6ae2","getOutcomeSlotCount(bytes32)":"d42dc0c2","getPositionId(address,bytes32)":"39dd7530","isApprovedForAll(address,address)":"e985e9c5","mergePositions(address,bytes32,bytes32,uint256[],uint256)":"9e7212ad","payoutDenominator(bytes32)":"dd34de67","payoutNumerators(bytes32,uint256)":"0504c814","prepareCondition(address,bytes32,uint256,uint256)":"0ca528d4","redeemPositions(address,bytes32,bytes32,uint256[])":"01b7037c","reportPayouts(bytes32,uint256[])":"c49298ac","safeBatchTransferFrom(address,address,uint256[],uint256[],bytes)":"2eb2c2d6","safeTransferFrom(address,address,uint256,uint256,bytes)":"f242432a","setApprovalForAll(address,bool)":"a22cb465","splitPosition(address,bytes32,bytes32,uint256[],uint256)":"72ce4275","supportsInterface(bytes4)":"01ffc9a7","uri(uint256)":"0e89341c"},"id":43}